:020000040800F2
:10000000002800200D0E0008A10D0008A70D000813
:10001000AD0D0008B30D0008B90D00080000000088
:10002000000000000000000000000000BF0D0008FC
:10003000CB0D000800000000D70D0008E30D0008FC
:10004000550E0008550E0008550E0008550E000804
:10005000550E0008550E0008550E0008550E0008F4
:10006000550E0008550E0008550E0008550E0008E4
:10007000550E0008550E0008550E0008550E0008D4
:10008000550E0008550E0008550E0008550E0008C4
:10009000550E0008550E0008550E0008550E0008B4
:1000A000550E0008550E0008550E0008550E0008A4
:1000B000550E0008550E000800000000550E0008FF
:1000C000550E00080000000000000000550E00085A
:1000D00000000000550E0008550E0008000000004A
:1000E000EF0D0008550E0008550E00080000000036
:1000F0000000000000000000000000000000000000
:0C01000000000000000000005FF808F1A3
:10010C0010B5054C237833B9044B13B10448AFF345
:10011C0000800123237010BD0C00002000000000A3
:10012C004C1D000808B5034B1BB103490348AFF342
:10013C00008008BD00000000100000204C1D0008CD
:10014C0080B582B000AF0023FB7101224FF4006137
:10015C00BE4801F0A2F94FF40041BD4801F086F908
:10016C000346012B0ED100BF4FF40041B84801F0FB
:10017C007DF90346012BF7D03123FB71B54B0122DE
:10018C001A7043E04FF48041B14801F06FF9034617
:10019C00012B0ED100BF4FF48041AD4801F066F940
:1001AC000346012BF7D03223FB71AA4B01221A70A4
:1001BC002CE04FF40051A64801F058F90346012BEE
:1001CC000ED100BF4FF40051A14801F04FF9034686
:1001DC00012BF7D03323FB719E4B01221A7015E0D3
:1001EC004FF480519A4801F041F90346012B0DD18F
:1001FC0000BF4FF48051964801F038F90346012BAB
:10020C00F7D02F23FB71934B01221A7000224FF46D
:10021C0000618E4801F041F901224FF480618B4856
:10022C0001F03BF94FF40041894801F01FF90346F6
:10023C00012B0ED100BF4FF40041854801F016F997
:10024C000346012BF7D03423FB71824B01221A7029
:10025C0043E04FF480417E4801F008F90346012B3E
:10026C000ED100BF4FF48041794801F0FFF80346EE
:10027C00012BF7D03523FB71764B01221A702CE041
:10028C004FF40051724801F0F1F80346012B0ED1E6
:10029C0000BF4FF400516E4801F0E8F80346012B03
:1002AC00F7D03623FB716B4B01221A7015E04FF41B
:1002BC008051674801F0DAF80346012B0DD100BFDD
:1002CC004FF48051624801F0D1F80346012BF7D06E
:1002DC007823FB715F4B01221A7000224FF480616E
:1002EC005A4801F0DAF801224FF40071574801F036
:1002FC00D4F84FF40041564801F0B8F80346012BEE
:10030C000ED100BF4FF40041514801F0AFF8034645
:10031C00012BF7D03723FB714E4B01221A7043E0AF
:10032C004FF480414A4801F0A1F80346012B0ED14D
:10033C0000BF4FF48041464801F098F80346012B6A
:10034C00F7D03823FB71434B01221A702CE04FF489
:10035C0000513F4801F08AF80346012B0ED100BF33
:10036C004FF400513A4801F081F80346012BF7D0C5
:10037C003923FB71374B01221A7015E04FF4805171
:10038C00334801F073F80346012B0DD100BF4FF435
:10039C0080512F4801F06AF80346012BF7D02D232A
:1003AC00FB712C4B01221A7000224FF4007127486C
:1003BC0001F073F801224FF48071244801F06DF8BC
:1003CC004FF40041224801F051F80346012B0ED1A5
:1003DC0000BF4FF400411E4801F048F80346012BC2
:1003EC00F7D04323FB711B4B01221A704AE04FF4E8
:1003FC008041174801F03AF80346012B0ED100BF9B
:10040C004FF48041124801F031F80346012BF7D02C
:10041C003023FB710F4B01221A7033E04FF4005163
:10042C000B4801F023F80346012B15D100BF4FF404
:10043C000051074801F01AF80346012BF7D03D2371
:10044C00FB71044B01221A701CE000BF0008014034
:10045C00000C0140280000204FF480510F4801F09F
:10046C0005F80346012B0DD100BF4FF480510B480A
:10047C0000F0FCFF0346012BF7D02B23FB71084B3C
:10048C0001221A7000224FF48071064801F005F821
:10049C00FB7918460837BD4680BD00BF000C0140F3
:1004AC00280000200008014080B584B000AFF8603F
:1004BC00B9601346FB71FB79782B26D0782B32DC94
:1004CC002F2B29D02F2B2EDC2B2B02D02D2B06D013
:1004DC0029E0FA68BB681344174A136027E0BA682E
:1004EC00FB689A4208D9BA68FB68D31A124A13609F
:1004FC00124B0122DA701AE0FA68BB68D31A0E4A62
:10050C0013600E4B0022DA7011E0FB68BA6802FB34
:10051C0003F3094A13600AE0FA68BB68B2FBF3F311
:10052C00054A136003E0064800F0CDFA00BF00BF97
:10053C001037BD4680BD00BF3800002028000020C9
:10054C00641D000880B58EB000AF786000237B631B
:10055C0018E079681D4BA3FB0123DA0813469B00B6
:10056C0013445B00CA1A7B6B9B0038333B4443F843
:10057C002C2C7B68154AA2FB0323DB087B607B6B6E
:10058C0001337B637B68002BE3D17B6B013B7B638B
:10059C000F4BDB78002B10D02D2000F03FFA0CE035
:1005AC007B6B9B0038333B4453F82C3C3033184660
:1005BC0000F034FA7B6B013B7B637B6B002BEFDA37
:1005CC0000BF00BF3837BD4680BD00BFCDCCCCCC02
:1005DC002800002080B582B000AF0346FB71A14B10
:1005EC0000221A70FB792F2B20D9FB79392B1DD8BF
:1005FC009C4B5B78002B0CD09B4B1A6813469B00D2
:10060C0013445B001A46FB791344303B964A136043
:10061C0024E1964B1A6813469B0013445B001A4660
:10062C00FB791344303B914A136017E1FB79432B60
:10063C003CDC2B2BC0F20F812B3B182B00F20B81D7
:10064C0001A252F823F000BFBF060008630800089F
:10065C000107000863080008850700086308000804
:10066C0063080008630800086308000863080008B2
:10067C0063080008630800086308000863080008A2
:10068C006308000863080008630800086308000892
:10069C00C70700086308000863080008630800081F
:1006AC00630800086308000803080008782B42D090
:1006BC00D1E06C4B5B78002B15D06C4B1B686A4AF5
:1006CC0011686B4A12781846FFF7EEFE694B1B68EF
:1006DC00664A1360644B00221A6000F0EDF9644A1C
:1006EC00FB791370BAE05F4B01225A70604AFB79B8
:1006FC001370B3E05B4B5B78002B15D05B4B1B6826
:10070C00594A11685A4A12781846FFF7CDFE594BD0
:10071C001B68564A1360544B00221A6000F0CCF947
:10072C00534AFB79137099E04E4B01225A70504A90
:10073C00FB79137092E04B4B5B78002B15D04B4B35
:10074C001B68494A11684A4A12781846FFF7ACFEF2
:10075C00484B1B68454A1360434B00221A6000F05B
:10076C00ABF9434AFB79137078E03E4B01225A7087
:10077C003F4AFB79137071E03A4B5B78002B15D034
:10078C003A4B1B68384A1168394A12781846FFF7F9
:10079C008BFE384B1B68354A1360334B00221A60B2
:1007AC0000F08AF9324AFB79137057E02D4B012285
:1007BC005A702F4AFB79137050E02C4B1B68002B9E
:1007CC0009D100F079F90321002000F058F92A48EA
:1007DC0000F079F90BE0254B1B68234A1168244A79
:1007EC0012781846FFF760FE0A2000F091FB1D4BB3
:1007FC0001229A7032E000F05FF91A4B5B78002B03
:10080C000AD0194B1B68002B06D1164B00225A70CC
:10081C00174B00221A701DE0124B5B78002B0CD08A
:10082C00114B1B68002B08D00F4B1B68134AA2FB03
:10083C000323DB080C4A13600CE00C4B1B68002BE9
:10084C000BD00A4B1B680D4AA2FB0323DB08074A9B
:10085C00136002E001E000BF00E000BF00BF0837FA
:10086C00BD4680BD28000020340000203000002050
:10087C003C00002038000020641D0008CDCCCCCCFE
:10088C0080B500AF0021002000F0F9F81D4B1B686B
:10089C00002B09D11C4B9B7883F00103DBB2002B9E
:1008AC0002D0302000F0BAF8164B1B681846FFF740
:1008BC0049FE154B5B78002B09D0144B1B7818465E
:1008CC0000F0ACF8124B1B681846FFF73BFE0E4BC2
:1008DC009B78002B13D00021012000F0D0F83D2094
:1008EC0000F09CF80B4B1B68002B03D1302000F060
:1008FC0095F804E0074B1B681846FFF723FE00BF72
:10090C0080BD00BF30000020280000203C000020EB
:10091C00340000203800002080B582B000AF786031
:10092C0039607B68DBB21A4604213B4800F0B5FD08
:10093C003B68DBB223F07F03DBB21A4680213648DA
:10094C0000F0ABFD3B68DBB203F04003DBB21A46B0
:10095C004021314800F0A1FD3B68DBB203F02003DD
:10096C00DBB21A4620212C4800F097FD3B68DBB225
:10097C0003F01003DBB21A461021274800F08DFD5E
:10098C0001220821244800F088FD0A2000F0C0FA5A
:10099C0000220821204800F080FD0A2000F0B8FA5F
:1009AC003B68DBB203F00803DBB21A4680211A481D
:1009BC0000F073FD3B68DBB203F00403DBB21A46B4
:1009CC004021154800F069FD3B68DBB203F00203DF
:1009DC00DBB21A462021104800F05FFD3B68DBB209
:1009EC0003F00103DBB21A4610210B4800F055FD51
:1009FC0001220821084800F050FD0A2000F088FA76
:100A0C0000220821044800F048FD0A2000F080FA7A
:100A1C0000BF0837BD4680BD0008014080B582B0DC
:100A2C0000AF786079680120FFF776FF00BF0837C8
:100A3C00BD4680BD80B582B000AF7860796800207B
:100A4C00FFF76AFF00BF0837BD4680BD80B500AF19
:100A5C000A2000F05DFA0220FFF7ECFF2820FFF7D8
:100A6C00E9FF0820FFF7E6FF0120FFF7E3FF062070
:100A7C00FFF7E0FF0C20FFF7DDFF00BF80BD80B566
:100A8C0082B000AF786039607B68002B03D07B6844
:100A9C00012B05D009E03B6843F080033B6004E088
:100AAC003B6843F0C0033B6000BF3868FFF7C2FFF0
:100ABC0000BF0837BD4680BD80B500AF0120FFF7F1
:100ACC00B9FF00BF80BD80B582B000AF786007E091
:100ADC007B681B781846FFF7A1FF7B6801337B60AE
:100AEC007B681B78002BF3D100BF00BF0837BD46D5
:100AFC0080BD000080B582B000AF00F0A7F900F017
:100B0C006DF800F0A7F8FFF7A1FFFFF719FB0346FC
:100B1C00FB71234B9B78002B36D0214B1B78002B81
:100B2C0032D01F4B00229A701D4B0022DA70FFF757
:100B3C00C3FF00210020FFF7A2FFFB792F2B02D966
:100B4C00FB79392B02D9FB79432B0DD1144B0022A5
:100B5C005A70144B00221A60134B00221A60FB7956
:100B6C001846FFF737FD0CE0104B1B680D4A13605D
:100B7C000D4B00221A600E4AFB7913704520FFF7CB
:100B8C004DFFFFF77DFE09E0054B1B78002BBCD019
:100B9C00FB791846FFF71EFDFFF772FEB5E700BFA5
:100BAC0028000020300000203400002038000020F5
:100BBC003C00002080B582B000AF0346FB80FB8870
:100BCC00B3F5004F04D14FF48051034800F07DFC85
:100BDC0000BF0837BD4680BD0008014080B590B00D
:100BEC0000AF07F1180328220021184601F07CF809
:100BFC003B1D00221A605A609A60DA601A61022367
:100C0C00BB610123BB621023FB6200237B6307F1F2
:100C1C001803184600F08AFC0346002B01D000F0A4
:100C2C0091F80F237B600023BB600023FB60002343
:100C3C003B6100237B613B1D0021184600F0F8FE50
:100C4C000346002B01D000F07DF800BF4037BD46B5
:100C5C0080BD000080B586B000AF07F1080300220C
:100C6C001A605A609A60DA60324B9B69314A43F0E1
:100C7C00040393612F4B9B6903F004037B607B6837
:100C8C002C4B9B692B4A43F008039361294B9B69BE
:100C9C0003F008033B603B68002241F6FC712648D8
:100CAC0000F0FBFB00220821244800F0F6FB41F683
:100CBC00FC73BB600123FB6000233B6102237B615F
:100CCC0007F1080319461C4800F054FA4FF470431E
:100CDC00BB600023FB6000233B6107F1080319464E
:100CEC00164800F047FA4FF40043BB60144BFB600E
:100CFC0000233B6107F1080319460F4800F03AFA4C
:100D0C000823BB600123FB6000233B6102237B6152
:100D1C0007F108031946094800F02CFA00220F21AC
:100D2C00282000F0F0F9282000F009FA00BF18374D
:100D3C00BD4680BD0010024000080140000C01407F
:100D4C000000111080B400AF72B600BFFEE70000C7
:100D5C0080B483B000AF0E4B9B690D4A43F0010386
:100D6C0093610B4B9B6903F001037B607B68084B21
:100D7C00DB69074A43F08053D361054BDB6903F011
:100D8C0080533B603B6800BF0C37BD4680BC70474E
:100D9C000010024080B400AFFEE780B400AFFEE765
:100DAC0080B400AFFEE780B400AFFEE780B400AFC4
:100DBC00FEE780B400AF00BFBD4680BC704780B476
:100DCC0000AF00BFBD4680BC704780B400AF00BF11
:100DDC00BD4680BC704780B500AF00F07DF800BF09
:100DEC0080BD80B500AF4FF4004000F087FB00BF22
:100DFC0080BD80B400AF00BFBD4680BC7047000012
:100E0C00FFF7F7FF0B480C490C4A002302E0D458BB
:100E1C00C4500433C4188C42F9D3094A094C00233A
:100E2C0001E013600432A242FBD300F065FFFFF730
:100E3C0061FE7047000000200C000020A01D00087F
:100E4C000C00002044000020FEE7000080B500AF3D
:100E5C00084B1B68074A43F010031360032000F093
:100E6C0047F90F2000F008F8FFF772FF002318462F
:100E7C0080BD00BF0020024080B582B000AF78601A
:100E8C00124B1A68124B1B7819464FF47A73B3FB4A
:100E9C00F1F3B2FBF3F3184600F05FF90346002BB5
:100EAC0001D001230EE07B680F2B0AD80022796851
:100EBC004FF0FF3000F027F9064A7B6813600023DF
:100ECC0000E0012318460837BD4680BD0000002015
:100EDC00080000200400002080B400AF054B1B78F4
:100EEC001A46054B1B681344034A136000BFBD46EA
:100EFC0080BC7047080000204000002080B400AF88
:100F0C00024B1B681846BD4680BC70474000002051
:100F1C0080B584B000AF7860FFF7F0FFB8607B68F5
:100F2C00FB60FB68B3F1FF3F05D00A4B1B781A46F8
:100F3C00FB681344FB6000BFFFF7E0FF0246BB6891
:100F4C00D31AFA689A42F7D800BF00BF1037BD46D3
:100F5C0080BD00BF0800002080B485B000AF786071
:100F6C007B6803F00703FB600C4BDB68BB60BA6863
:100F7C004FF6FF031340BB60FB681A02BB681343B8
:100F8C0043F0BF6343F40033BB60044ABB68D360D7
:100F9C0000BF1437BD4680BC704700BF00ED00E0B9
:100FAC0080B400AF044BDB681B0A03F00703184640
:100FBC00BD4680BC704700BF00ED00E080B483B03C
:100FCC0000AF0346FB7197F90730002B0BDBFB7965
:100FDC0003F01F02064997F907305B09012000FA5C
:100FEC0002F241F8232000BF0C37BD4680BC70478D
:100FFC0000E100E080B483B000AF03463960FB71C0
:10100C0097F90730002B0ADB3B68DAB20C4997F9E9
:10101C0007301201D2B20B4483F800230AE03B687C
:10102C00DAB20849FB7903F00F03043B1201D2B288
:10103C000B441A7600BF0C37BD4680BC704700BF0E
:10104C0000E100E000ED00E080B489B000AFF86092
:10105C00B9607A60FB6803F00703FB61FB69C3F1BD
:10106C000703042B28BF0423BB61FB690433062B45
:10107C0002D9FB69033B00E000237B614FF0FF3298
:10108C00BB6902FA03F3DA43BB681A407B699A40E6
:10109C004FF0FF317B6901FA03F3D9437B680B40B6
:1010AC00134318462437BD4680BC704780B582B0C8
:1010BC0000AF78607B68013BB3F1807F01D30123E3
:1010CC000FE00A4A7B68013B53600F214FF0FF3061
:1010DC00FFF790FF054B00229A60044B07221A6021
:1010EC00002318460837BD4680BD00BF10E000E065
:1010FC0080B582B000AF78607868FFF72DFF00BF35
:10110C000837BD4680BD80B586B000AF0346B960D8
:10111C007A60FB7300237B61FFF742FF78617A688A
:10112C00B9687869FFF790FF024697F90F301146BE
:10113C001846FFF75FFF00BF1837BD4680BD80B56E
:10114C0082B000AF0346FB7197F907301846FFF7E2
:10115C0035FF00BF0837BD4680BD80B582B000AFFB
:10116C0078607868FFF7A2FF034618460837BD463B
:10117C0080BD000080B48BB000AF78603960002374
:10118C007B6200233B6261E101227B6A02FA03F37A
:10119C00FB613B681B68FA691340BB61BA69FB6968
:1011AC009A4240F050813B685B68974A93425ED00C
:1011BC00954A934275D8954A934258D0934A934294
:1011CC006FD8934A934252D0914A934269D8914A2C
:1011DC0093424CD08F4A934263D88F4A934246D065
:1011EC008D4A93425DD8122B2AD8122B59D801A2C2
:1011FC0052F823F07B120008551200086712000801
:10120C00A9120008AF120008AF120008AF120008B4
:10121C00AF120008AF120008AF120008AF1200089E
:10122C00AF120008AF120008AF120008AF1200088E
:10123C00AF120008AF1200085D120008711200080E
:10124C00764A934213D02CE03B68DB683B6229E082
:10125C003B68DB6804333B6224E03B68DB680833A3
:10126C003B621FE03B68DB680C333B621AE03B6877
:10127C009B68002B02D104233B6213E03B689B6804
:10128C00012B05D108233B627B68FA691A6109E0DE
:10129C0008233B627B68FA695A6103E000233B62D6
:1012AC0000E000BFBB69FF2B01D87B6801E07B68C5
:1012BC0004337B61BB69FF2B02D87B6A9B0002E085
:1012CC007B6A083B9B003B617B691A680F213B6979
:1012DC0001FA03F3DB431A40396A3B6901FA03F361
:1012EC001A437B691A603B685B6803F08053002BE0
:1012FC0000F0A9804A4B9B69494A43F00103936172
:10130C00474B9B6903F00103BB60BB68454A7B6A92
:10131C009B08023352F82330FB607B6A03F0030313
:10132C009B000F2202FA03F3DB43FA681340FB60C5
:10133C007B683D4A93420DD07B683C4A934207D070
:10134C007B683B4A934201D1022304E0032302E071
:10135C00012300E000237A6A02F00302920093401A
:10136C00FA681343FB602F497B6A9B080233FA68C7
:10137C0041F823203B685B6803F48013002B06D0F4
:10138C002C4B9A682B49BB6913438B6006E0294BA5
:10139C009A68BB69DB43274913408B603B685B68E9
:1013AC0003F40013002B06D0224BDA682149BB69E9
:1013BC001343CB6006E01F4BDA68BB69DB431D4966
:1013CC001340CB603B685B6803F40033002B06D002
:1013DC00184B5A681749BB6913434B6006E0154B11
:1013EC005A68BB69DB43134913404B603B685B682D
:1013FC0003F48033002B1FD00E4B1A680D49BB69C8
:10140C0013430B601FE000BF0000321000003110CE
:10141C00000022100000211000001210000011101A
:10142C00001002400000014000080140000C014087
:10143C0000100140000401400B4B1A68BB69DB43F0
:10144C00094913400B607B6A01337B623B681A6865
:10145C007B6A22FA03F3002B7FF496AE00BF00BF29
:10146C002C37BD4680BC70470004014080B485B069
:10147C0000AF78600B467B807B689A687B88134052
:10148C00002B02D00123FB7301E00023FB73FB7BD9
:10149C0018461437BD4680BC704780B483B000AF8B
:1014AC0078600B467B8013467B707B78002B03D0D7
:1014BC007A887B681A6103E07B881A047B681A615E
:1014CC0000BF0C37BD4680BC704780B485B000AF00
:1014DC0078600B467B807B68DB68FB607A88FB68F6
:1014EC0013401A04FB68D9437B880B401A437B6872
:1014FC001A6100BF1437BD4680BC704780B582B0FE
:10150C0000AF0346FB80084B5A69FB881340002B45
:10151C0006D0054AFB885361FB881846FFF74AFB47
:10152C0000BF0837BD4680BD0004014080B586B0C1
:10153C0000AF78607B68002B01D1012372E27B68DD
:10154C001B6803F00103002B00F08780924B5B6853
:10155C0003F00C03042B0CD08F4B5B6803F00C03D3
:10156C00082B12D18C4B5B6803F48033B3F5803FAE
:10157C000BD1894B1B6803F40033002B6CD07B68B8
:10158C005B68002B68D101234CE27B685B68B3F588
:10159C00803F06D1804B1B687F4A43F48033136035
:1015AC002EE07B685B68002B0CD17B4B1B687A4A66
:1015BC0023F480331360784B1B68774A23F4802321
:1015CC0013601DE07B685B68B3F5A02F0CD1724BE8
:1015DC001B68714A43F4802313606F4B1B686E4A7F
:1015EC0043F4803313600BE06B4B1B686A4A23F4A3
:1015FC0080331360684B1B68674A23F480231360A5
:10160C007B685B68002B13D0FFF778FC386108E02F
:10161C00FFF774FC02463B69D31A642B01D90323F0
:10162C0000E25D4B1B6803F40033002BF0D014E098
:10163C00FFF764FC386108E0FFF760FC02463B6989
:10164C00D31A642B01D90323ECE1534B1B6803F42D
:10165C000033002BF0D100E000BF7B681B6803F067
:10166C000203002B63D04C4B5B6803F00C03002B84
:10167C000BD0494B5B6803F00C03082B1CD1464B79
:10168C005B6803F48033002B16D1434B1B6803F0CB
:10169C000203002B05D07B681B69012B01D00123B1
:1016AC00C0E13D4B1B6823F0F8027B685B69DB00F3
:1016BC00394913430B603AE07B681B69002B20D03F
:1016CC00364B01221A60FFF719FC386108E0FFF76E
:1016DC0015FC02463B69D31A022B01D90323A1E165
:1016EC002D4B1B6803F00203002BF0D02A4B1B6818
:1016FC0023F0F8027B685B69DB00274913430B601E
:10170C0015E0264B00221A60FFF7F8FB386108E061
:10171C00FFF7F4FB02463B69D31A022B01D90323D2
:10172C0080E11D4B1B6803F00203002BF0D17B689A
:10173C001B6803F00803002B3AD07B689B69002BD5
:10174C0019D0174B01221A60FFF7D8FB386108E05B
:10175C00FFF7D4FB02463B69D31A022B01D90323B2
:10176C0060E10D4B5B6A03F00203002BF0D001200B
:10177C0000F09CFA1CE00A4B00221A60FFF7BEFB3B
:10178C0038610FE0FFF7BAFB02463B69D31A022B14
:10179C0008D9032346E100BF00100240000042427A
:1017AC0080044242924B5B6A03F00203002BE9D1A6
:1017BC007B681B6803F00403002B00F0A680002359
:1017CC00FB758B4BDB6903F08053002B0DD1884BE1
:1017DC00DB69874A43F08053D361854BDB6903F0A7
:1017EC008053BB60BB680123FB75824B1B6803F401
:1017FC008073002B18D17F4B1B687E4A43F4807397
:10180C001360FFF77BFB386108E0FFF777FB0246BC
:10181C003B69D31A642B01D9032303E1754B1B6875
:10182C0003F48073002BF0D07B68DB68012B06D1AE
:10183C006F4B1B6A6E4A43F0010313622DE07B6809
:10184C00DB68002B0CD16A4B1B6A694A23F001033D
:10185C001362674B1B6A664A23F0040313621CE095
:10186C007B68DB68052B0CD1614B1B6A604A43F02B
:10187C00040313625E4B1B6A5D4A43F0010313625F
:10188C000BE05B4B1B6A5A4A23F001031362584B63
:10189C001B6A574A23F0040313627B68DB68002B36
:1018AC0015D0FFF72BFB38610AE0FFF727FB024648
:1018BC003B69D31A41F28832934201D90323B1E038
:1018CC004B4B1B6A03F00203002BEED014E0FFF726
:1018DC0015FB38610AE0FFF711FB02463B69D31A8E
:1018EC0041F28832934201D903239BE0404B1B6A9F
:1018FC0003F00203002BEED1FB7D012B05D13C4BF9
:10190C00DB693B4A23F08053D3617B68DB69002B96
:10191C0000F08780364B5B6803F00C03082B61D01A
:10192C007B68DB69022B46D1334B00221A60FFF730
:10193C00E5FA386108E0FFF7E1FA02463B69D31A91
:10194C00022B01D903236DE0294B1B6803F00073B4
:10195C00002BF0D17B681B6AB3F5803F08D1244B78
:10196C005B6823F400327B689B68214913434B600E
:10197C001F4B5B6823F474127B68196A7B685B6A83
:10198C000B431B4913434B601B4B01221A60FFF79F
:10199C00B5FA386108E0FFF7B1FA02463B69D31A91
:1019AC00022B01D903233DE0114B1B6803F000739C
:1019BC00002BF0D035E0104B00221A60FFF79EFA96
:1019CC00386108E0FFF79AFA02463B69D31A022BFA
:1019DC0001D9032326E0064B1B6803F00073002B90
:1019EC00F0D11EE07B68DB69012B07D1012319E0E4
:1019FC000010024000700040600042420B4B5B68DC
:101A0C00FB60FB6803F480327B681B6A9A4206D148
:101A1C00FB6803F470127B685B6A9A4201D0012365
:101A2C0000E0002318461837BD4680BD0010024068
:101A3C0080B584B000AF786039607B68002B01D131
:101A4C000123D0E06A4B1B6803F007033A689A4203
:101A5C0010D9674B1B6823F0070265493B68134399
:101A6C000B60634B1B6803F007033A689A4201D082
:101A7C000123B8E07B681B6803F00203002B20D025
:101A8C007B681B6803F00403002B05D0594B5B6883
:101A9C00584A43F4E06353607B681B6803F0080307
:101AAC00002B05D0534B5B68524A43F46053536090
:101ABC00504B5B6823F0F0027B689B684D491343E5
:101ACC004B607B681B6803F00103002B40D07B68E4
:101ADC005B68012B07D1474B1B6803F40033002BC9
:101AEC0015D101237FE07B685B68022B07D1414B4A
:101AFC001B6803F00073002B09D1012373E03D4BED
:101B0C001B6803F00203002B01D101236BE0394B5E
:101B1C005B6823F003027B685B68364913434B60B8
:101B2C00FFF7ECF9F8600AE0FFF7E8F90246FB680A
:101B3C00D31A41F28832934201D9032353E02D4B3F
:101B4C005B6803F00C027B685B689B009A42EBD1EC
:101B5C00274B1B6803F007033A689A4210D2244BB8
:101B6C001B6823F0070222493B6813430B60204B90
:101B7C001B6803F007033A689A4201D0012332E054
:101B8C007B681B6803F00403002B08D0194B5B68BF
:101B9C0023F4E0627B68DB68164913434B607B6877
:101BAC001B6803F00803002B09D0124B5B6823F46D
:101BBC0060527B681B69DB000E4913434B6000F0DD
:101BCC0021F802460B4B5B681B0903F00F030A4913
:101BDC00CB5C22FA03F3094A1360094B1B681846C5
:101BEC00FFF74AF9002318461037BD4680BD00BFE9
:101BFC000020024000100240741D0008000000206C
:101C0C000400002080B487B000AF0023FB600023E9
:101C1C00BB6000237B6100237B6000233B611E4B78
:101C2C005B68FB60FB6803F00C03042B02D0082BF1
:101C3C0003D027E0194B3B6127E0FB689B0C03F0BA
:101C4C000F03174AD35C7B60FB6803F48033002BD3
:101C5C0010D0114B5B685B0C03F00103114AD35C91
:101C6C00BB607B680D4A03FB02F2BB68B2FBF3F36B
:101C7C007B6104E07B680C4A02FB03F37B617B69AC
:101C8C003B6102E0054B3B6100BF3B6918461C37CA
:101C9C00BD4680BC704700BF0010024000127A00A5
:101CAC00841D0008941D000800093D0080B485B017
:101CBC0000AF78600A4B1B680A4AA2FB03235B0A3D
:101CCC007A6802FB03F3FB6000BFFB685A1EFA60E4
:101CDC00002BF9D100BF00BF1437BD4680BC704744
:101CEC0000000020D34D621003460244934200D101
:101CFC00704703F8011BF9E770B500260C4D0D4C2D
:101D0C00641BA410A64209D100F01AF800260A4D53
:101D1C000A4C641BA410A64205D170BD55F8043BB7
:101D2C0098470136EEE755F8043B98470136F2E741
:101D3C00981D0008981D0008981D00089C1D00089F
:101D4C00F8B500BFF8BC08BC9E467047F8B500BF9C
:081D5C00F8BC08BC9E4670476C
:101D640053594E544158204552524F5200000000DE
:101D74000000000000000000010203040607080937
:101D840002030405060708090A0B0C0D0E0F1010B8
:041D94000102000048
:041D9800310100080D
:041D9C000D0100082D
:0C1DA0000024F40010000000010000000E
:0400000508000E0DD4
:00000001FF
